:020000040000FA
:020000009A283C
:080008001508003A0319152840
:100010001508013A03193D281508023A03195C280E
:100020001508033A03197B288D2886010511950AC6
:10003000EB30A121F32019210C0891000739C038B9
:1000400097001C21F32019210C0892001C21F32099
:1000500019210C0893001C211008003A03193D28AF
:10006000F32019210C0894001C211008043A0319EC
:100070009828141A9715941A1716950A1208FF391A
:1000800003195C281208111A4E28E039031D4C2868
:1000900012081F39403857285F305728E039E03AB6
:1000A000031954286030572812081F396038860019
:1000B0000511121805159828950A1308FF39031918
:1000C0007B281308911A6D28E039031D6B2813084B
:1000D0001F39803876289F307628E039E03A0319B6
:1000E0007328A030762813081F39A0388600051120
:1000F000131805159828950A14080F3903198D2827
:1001000014080F390F3A013EE03886000612941D9C
:1001100006160511141805159828950118081706D4
:1001200003191528170898008600051117180515DA
:100130008B10090083160514851405118601061419
:100140008312860105119501C03097009800FF3099
:10015000A121F32019210C08AA3A031DE9281C212A
:10016000F32019210C08003A031DE928F330A121DE
:10017000C830A121F330A121C830A121F330A12141
:100180005030A121F230A121F32019210C08900058
:10019000043A0319DD28F330A121C830A121F3303E
:1001A000A1216430A121F330A1215030A121F230EE
:1001B000A121F32019210C089000E830A121003082
:1001C000A121F030A1218B170B168B10E62800001F
:1001D000000005118601E928000008003230960071
:1001E000960BF02808000518F328051CF5280F21A8
:1001F0000F210F210F210F210F210F210F21051892
:10020000FF2885180D290D10051C0429051806293D
:10021000851CE828051C0A2908000D140429051866
:100220000F2905088F008F0C8F0C8C0C051C1629CC
:1002300008001E21EE200800232108008316051067
:100240008312051008008316051483120800831614
:100250008510831285100800831685148312080008
:100260001921EC202721EC201C21051835297021AB
:10027000051C382905183A297021051C3D29051847
:100280003F297021051C4229051844297021051CAD
:100290004729051849297021051C4C2905184E29A4
:1002A0007021051C5129051853297021051C562958
:1002B000051858297021051C5B2905185D2977212F
:1002C000051C6029051862292C21051C65290518C3
:1002D00067298518E828051C6B29851C6D290800ED
:1002E0008C0C03187529272108002C2174290D185E
:1002F0007B29272108002C217A2900308E000C1838
:100300008E0A8C188E0A0C198E0A8C198E0A0C1AF9
:100310008E0A8C1A8E0A0C1B8E0A8C1B8E0A080001
:100320007D210E1C95290D1008000D1408007D215B
:100330000E0801398E000D088E06031D0800E72007
:1003400008008C0090211C21EE203021F32019217F
:0C0350000C08FA3A031DE9281C210800E3
:02400E00F33F7E
:00000001FF
